{
  "_format": "hh-sol-artifact-1",
  "contractName": "CrowdFudig",
  "sourceName": "contracts/CrowdFudig.sol",
  "abi": [
    {
      "inputs": [
        {
          "internalType": "uint256",
          "name": "",
          "type": "uint256"
        }
      ],
      "name": "campaigns",
      "outputs": [
        {
          "internalType": "address",
          "name": "owner",
          "type": "address"
        },
        {
          "internalType": "string",
          "name": "title",
          "type": "string"
        },
        {
          "internalType": "string",
          "name": "description",
          "type": "string"
        },
        {
          "internalType": "uint256",
          "name": "target",
          "type": "uint256"
        },
        {
          "internalType": "uint256",
          "name": "deadline",
          "type": "uint256"
        },
        {
          "internalType": "uint256",
          "name": "amountCollected",
          "type": "uint256"
        },
        {
          "internalType": "string",
          "name": "image",
          "type": "string"
        }
      ],
      "stateMutability": "view",
      "type": "function"
    },
    {
      "inputs": [
        {
          "internalType": "address",
          "name": "_owner",
          "type": "address"
        },
        {
          "internalType": "string",
          "name": "_title",
          "type": "string"
        },
        {
          "internalType": "string",
          "name": "_description",
          "type": "string"
        },
        {
          "internalType": "uint256",
          "name": "_target",
          "type": "uint256"
        },
        {
          "internalType": "uint256",
          "name": "_deadline",
          "type": "uint256"
        },
        {
          "internalType": "string",
          "name": "_image",
          "type": "string"
        }
      ],
      "name": "createCampaign",
      "outputs": [
        {
          "internalType": "uint256",
          "name": "",
          "type": "uint256"
        }
      ],
      "stateMutability": "nonpayable",
      "type": "function"
    },
    {
      "inputs": [
        {
          "internalType": "uint256",
          "name": "_id",
          "type": "uint256"
        }
      ],
      "name": "donateToCampaign",
      "outputs": [],
      "stateMutability": "payable",
      "type": "function"
    },
    {
      "inputs": [],
      "name": "getCampaigns",
      "outputs": [
        {
          "components": [
            {
              "internalType": "address",
              "name": "owner",
              "type": "address"
            },
            {
              "internalType": "string",
              "name": "title",
              "type": "string"
            },
            {
              "internalType": "string",
              "name": "description",
              "type": "string"
            },
            {
              "internalType": "uint256",
              "name": "target",
              "type": "uint256"
            },
            {
              "internalType": "uint256",
              "name": "deadline",
              "type": "uint256"
            },
            {
              "internalType": "uint256",
              "name": "amountCollected",
              "type": "uint256"
            },
            {
              "internalType": "string",
              "name": "image",
              "type": "string"
            },
            {
              "internalType": "address[]",
              "name": "donators",
              "type": "address[]"
            },
            {
              "internalType": "uint256[]",
              "name": "donations",
              "type": "uint256[]"
            }
          ],
          "internalType": "struct CrowdFudig.Campaign[]",
          "name": "",
          "type": "tuple[]"
        }
      ],
      "stateMutability": "view",
      "type": "function"
    },
    {
      "inputs": [
        {
          "internalType": "uint256",
          "name": "_id",
          "type": "uint256"
        }
      ],
      "name": "getDonators",
      "outputs": [
        {
          "internalType": "address[]",
          "name": "",
          "type": "address[]"
        },
        {
          "internalType": "uint256[]",
          "name": "",
          "type": "uint256[]"
        }
      ],
      "stateMutability": "view",
      "type": "function"
    },
    {
      "inputs": [],
      "name": "numberOfCampigns",
      "outputs": [
        {
          "internalType": "uint256",
          "name": "",
          "type": "uint256"
        }
      ],
      "stateMutability": "view",
      "type": "function"
    }
  ],
  "bytecode": "0x6080604052600060015534801561001557600080fd5b50610f69806100256000396000f3fe6080604052600436106100555760003560e01c80630fa91fa91461005a578063141961bc1461009157806342a4fda8146100c45780639943e3a1146100d9578063a6b0363314610107578063b4da680e14610129575b600080fd5b34801561006657600080fd5b5061007a61007536600461094f565b61013f565b604051610088929190610968565b60405180910390f35b34801561009d57600080fd5b506100b16100ac36600461094f565b61020e565b6040516100889796959493929190610a32565b6100d76100d236600461094f565b6103eb565b005b3480156100e557600080fd5b506100f96100f4366004610b3f565b6104ad565b604051908152602001610088565b34801561011357600080fd5b5061011c6105af565b6040516100889190610c6c565b34801561013557600080fd5b506100f960015481565b600081815260208181526040918290206007810180548451818502810185019095528085526060948594929360080192909184918301828280156101ac57602002820191906000526020600020905b81546001600160a01b0316815260019091019060200180831161018e575b50505050509150808054806020026020016040519081016040528092919081815260200182805480156101fe57602002820191906000526020600020905b8154815260200190600101908083116101ea575b5050505050905091509150915091565b600060208190529081526040902080546001820180546001600160a01b03909216929161023a90610d79565b80601f016020809104026020016040519081016040528092919081815260200182805461026690610d79565b80156102b35780601f10610288576101008083540402835291602001916102b3565b820191906000526020600020905b81548152906001019060200180831161029657829003601f168201915b5050505050908060020180546102c890610d79565b80601f01602080910402602001604051908101604052809291908181526020018280546102f490610d79565b80156103415780601f1061031657610100808354040283529160200191610341565b820191906000526020600020905b81548152906001019060200180831161032457829003601f168201915b50505050509080600301549080600401549080600501549080600601805461036890610d79565b80601f016020809104026020016040519081016040528092919081815260200182805461039490610d79565b80156103e15780601f106103b6576101008083540402835291602001916103e1565b820191906000526020600020905b8154815290600101906020018083116103c457829003601f168201915b5050505050905087565b600081815260208181526040808320600781018054600180820183559186528486200180546001600160a01b0319163317905560088201805491820181558552928420349301839055805491519293909290916001600160a01b03169084908381818185875af1925050503d8060008114610482576040519150601f19603f3d011682016040523d82523d6000602084013e610487565b606091505b5050905080156104a7578282600501546104a19190610dc9565b60058301555b50505050565b6001546000908152602081905260408120600481015442116105255760405162461bcd60e51b815260206004820152602760248201527f54686520646561646c696e652073686f756c642062652061206461746520696e6044820152662066757475726560c81b606482015260840160405180910390fd5b80546001600160a01b0319166001600160a01b0389161781556001810161054c8882610e31565b506002810161055b8782610e31565b506003810185905560048101849055600681016105788482610e31565b50600060058201819055600180549161059083610ef1565b9190505550600180546105a39190610f0a565b98975050505050505050565b6060600060015467ffffffffffffffff8111156105ce576105ce610a9c565b60405190808252806020026020018201604052801561065757816020015b61064460405180610120016040528060006001600160a01b0316815260200160608152602001606081526020016000815260200160008152602001600081526020016060815260200160608152602001606081525090565b8152602001906001900390816105ec5790505b509050600060015481101561094a57600081815260208181526040918290208251610120810190935280546001600160a01b03168352600181018054919392849290840191906106a690610d79565b80601f01602080910402602001604051908101604052809291908181526020018280546106d290610d79565b801561071f5780601f106106f45761010080835404028352916020019161071f565b820191906000526020600020905b81548152906001019060200180831161070257829003601f168201915b5050505050815260200160028201805461073890610d79565b80601f016020809104026020016040519081016040528092919081815260200182805461076490610d79565b80156107b15780601f10610786576101008083540402835291602001916107b1565b820191906000526020600020905b81548152906001019060200180831161079457829003601f168201915b505050505081526020016003820154815260200160048201548152602001600582015481526020016006820180546107e890610d79565b80601f016020809104026020016040519081016040528092919081815260200182805461081490610d79565b80156108615780601f1061083657610100808354040283529160200191610861565b820191906000526020600020905b81548152906001019060200180831161084457829003601f168201915b50505050508152602001600782018054806020026020016040519081016040528092919081815260200182805480156108c357602002820191906000526020600020905b81546001600160a01b031681526001909101906020018083116108a5575b505050505081526020016008820180548060200260200160405190810160405280929190818152602001828054801561091b57602002820191906000526020600020905b815481526020019060010190808311610907575b50505050508152505083838151811061093657610936610f1d565b602002602001018190525082935050505090565b505090565b60006020828403121561096157600080fd5b5035919050565b604080825283519082018190526000906020906060840190828701845b828110156109aa5781516001600160a01b031684529284019290840190600101610985565b5050508381038285015284518082528583019183019060005b818110156109df578351835292840192918401916001016109c3565b5090979650505050505050565b6000815180845260005b81811015610a12576020818501810151868301820152016109f6565b506000602082860101526020601f19601f83011685010191505092915050565b6001600160a01b038816815260e060208201819052600090610a56908301896109ec565b8281036040840152610a6881896109ec565b90508660608401528560808401528460a084015282810360c0840152610a8e81856109ec565b9a9950505050505050505050565b634e487b7160e01b600052604160045260246000fd5b600082601f830112610ac357600080fd5b813567ffffffffffffffff80821115610ade57610ade610a9c565b604051601f8301601f19908116603f01168101908282118183101715610b0657610b06610a9c565b81604052838152866020858801011115610b1f57600080fd5b836020870160208301376000602085830101528094505050505092915050565b60008060008060008060c08789031215610b5857600080fd5b86356001600160a01b0381168114610b6f57600080fd5b9550602087013567ffffffffffffffff80821115610b8c57600080fd5b610b988a838b01610ab2565b96506040890135915080821115610bae57600080fd5b610bba8a838b01610ab2565b9550606089013594506080890135935060a0890135915080821115610bde57600080fd5b50610beb89828a01610ab2565b9150509295509295509295565b600081518084526020808501945080840160005b83811015610c315781516001600160a01b031687529582019590820190600101610c0c565b509495945050505050565b600081518084526020808501945080840160005b83811015610c3157815187529582019590820190600101610c50565b60006020808301818452808551808352604092508286019150828160051b87010184880160005b83811015610d6b57888303603f19018552815180516001600160a01b0316845261012088820151818a870152610ccb828701826109ec565b9150508782015185820389870152610ce382826109ec565b606084810151908801526080808501519088015260a0808501519088015260c080850151888303828a01529193509150610d1d83826109ec565b9250505060e08083015186830382880152610d388382610bf8565b925050506101008083015192508582038187015250610d578183610c3c565b968901969450505090860190600101610c93565b509098975050505050505050565b600181811c90821680610d8d57607f821691505b602082108103610dad57634e487b7160e01b600052602260045260246000fd5b50919050565b634e487b7160e01b600052601160045260246000fd5b80820180821115610ddc57610ddc610db3565b92915050565b601f821115610e2c57600081815260208120601f850160051c81016020861015610e095750805b601f850160051c820191505b81811015610e2857828155600101610e15565b5050505b505050565b815167ffffffffffffffff811115610e4b57610e4b610a9c565b610e5f81610e598454610d79565b84610de2565b602080601f831160018114610e945760008415610e7c5750858301515b600019600386901b1c1916600185901b178555610e28565b600085815260208120601f198616915b82811015610ec357888601518255948401946001909101908401610ea4565b5085821015610ee15787850151600019600388901b60f8161c191681555b5050505050600190811b01905550565b600060018201610f0357610f03610db3565b5060010190565b81810381811115610ddc57610ddc610db3565b634e487b7160e01b600052603260045260246000fdfea264697066735822122096a34a43214c7bb68befeaa12585ce39bbea2383a8489a7fe227251464cb35eb64736f6c63430008110033",
  "linkReferences": {},
  "deployedLinkReferences": {}
}